{
  "address": "0x46b1e5E36dBb37Ae99Ba6008AbAa82cE758f26c5",
  "abi": [
    {
      "inputs": [
        {
          "internalType": "address",
          "name": "",
          "type": "address"
        }
      ],
      "name": "IdenticalAddress",
      "type": "error"
    },
    {
      "inputs": [
        {
          "internalType": "address",
          "name": "",
          "type": "address"
        },
        {
          "internalType": "address",
          "name": "",
          "type": "address"
        },
        {
          "internalType": "address",
          "name": "",
          "type": "address"
        }
      ],
      "name": "PairExist",
      "type": "error"
    },
    {
      "inputs": [
        {
          "internalType": "address",
          "name": "",
          "type": "address"
        },
        {
          "internalType": "address",
          "name": "",
          "type": "address"
        }
      ],
      "name": "PairNotExist",
      "type": "error"
    },
    {
      "inputs": [
        {
          "internalType": "address",
          "name": "",
          "type": "address"
        }
      ],
      "name": "ZeroAddress",
      "type": "error"
    },
    {
      "anonymous": false,
      "inputs": [
        {
          "indexed": true,
          "internalType": "address",
          "name": "previousOwner",
          "type": "address"
        },
        {
          "indexed": true,
          "internalType": "address",
          "name": "newOwner",
          "type": "address"
        }
      ],
      "name": "OwnershipTransferred",
      "type": "event"
    },
    {
      "anonymous": false,
      "inputs": [
        {
          "indexed": false,
          "internalType": "address",
          "name": "token0",
          "type": "address"
        },
        {
          "indexed": false,
          "internalType": "address",
          "name": "token1",
          "type": "address"
        },
        {
          "indexed": false,
          "internalType": "address",
          "name": "pricer",
          "type": "address"
        }
      ],
      "name": "PairAdded",
      "type": "event"
    },
    {
      "inputs": [
        {
          "internalType": "address",
          "name": "tokenA",
          "type": "address"
        },
        {
          "internalType": "address",
          "name": "tokenB",
          "type": "address"
        },
        {
          "internalType": "address",
          "name": "solver",
          "type": "address"
        }
      ],
      "name": "addContract",
      "outputs": [],
      "stateMutability": "nonpayable",
      "type": "function"
    },
    {
      "inputs": [
        {
          "internalType": "address",
          "name": "tokenA",
          "type": "address"
        },
        {
          "internalType": "address",
          "name": "tokenB",
          "type": "address"
        }
      ],
      "name": "getPrice",
      "outputs": [
        {
          "internalType": "int256",
          "name": "",
          "type": "int256"
        }
      ],
      "stateMutability": "view",
      "type": "function"
    },
    {
      "inputs": [],
      "name": "owner",
      "outputs": [
        {
          "internalType": "address",
          "name": "",
          "type": "address"
        }
      ],
      "stateMutability": "view",
      "type": "function"
    },
    {
      "inputs": [],
      "name": "renounceOwnership",
      "outputs": [],
      "stateMutability": "nonpayable",
      "type": "function"
    },
    {
      "inputs": [
        {
          "internalType": "address",
          "name": "newOwner",
          "type": "address"
        }
      ],
      "name": "transferOwnership",
      "outputs": [],
      "stateMutability": "nonpayable",
      "type": "function"
    }
  ],
  "transactionHash": "0x421b3646333d1f81479b0b08edee1fb3aca710249b84357295ec7676b60290b1",
  "args": [],
  "numDeployments": 1,
  "solcInputHash": "6e9a0befe8bf92718982880f62ead3ff",
  "bytecode": "0x608060405234801561001057600080fd5b5061002d61002261003260201b60201c565b61003a60201b60201c565b6100fe565b600033905090565b60008060009054906101000a900473ffffffffffffffffffffffffffffffffffffffff169050816000806101000a81548173ffffffffffffffffffffffffffffffffffffffff021916908373ffffffffffffffffffffffffffffffffffffffff1602179055508173ffffffffffffffffffffffffffffffffffffffff168173ffffffffffffffffffffffffffffffffffffffff167f8be0079c531659141344cd1fd0a4f28419497f9722a3daafe3b4186f6b6457e060405160405180910390a35050565b610ecf8061010d6000396000f3fe608060405234801561001057600080fd5b50600436106100575760003560e01c8063715018a61461005c5780638da5cb5b14610066578063ac41865a14610084578063d860fd0e146100b4578063f2fde38b146100d0575b600080fd5b6100646100ec565b005b61006e610100565b60405161007b9190610910565b60405180910390f35b61009e600480360381019061009991906107b5565b610129565b6040516100ab919061098b565b60405180910390f35b6100ce60048036038101906100c991906107f1565b610233565b005b6100ea60048036038101906100e5919061078c565b6103c6565b005b6100f461044a565b6100fe60006104c8565b565b60008060009054906101000a900473ffffffffffffffffffffffffffffffffffffffff16905090565b600080610136848461058c565b9050600073ffffffffffffffffffffffffffffffffffffffff168173ffffffffffffffffffffffffffffffffffffffff1614156101ac5783836040517f06f48e3b0000000000000000000000000000000000000000000000000000000081526004016101a392919061092b565b60405180910390fd5b8073ffffffffffffffffffffffffffffffffffffffff16638e15f4736040518163ffffffff1660e01b815260040160206040518083038186803b1580156101f257600080fd5b505afa158015610206573d6000803e3d6000fd5b505050506040513d601f19601f8201168201806040525081019061022a9190610840565b91505092915050565b61023b61044a565b6000610247848461058c565b9050600073ffffffffffffffffffffffffffffffffffffffff168173ffffffffffffffffffffffffffffffffffffffff16146102be578383836040517fea061f900000000000000000000000000000000000000000000000000000000081526004016102b593929190610954565b60405180910390fd5b60006102ca858561064a565b9050826040516102d990610755565b6102e39190610910565b604051809103906000f0801580156102ff573d6000803e3d6000fd5b506001600083815260200190815260200160002060006101000a81548173ffffffffffffffffffffffffffffffffffffffff021916908373ffffffffffffffffffffffffffffffffffffffff1602179055507f7f46075c67ca5bbd3aaf82d8e324282141f27b7cba3376e5498a6b70c9931c2a85856001600085815260200190815260200160002060009054906101000a900473ffffffffffffffffffffffffffffffffffffffff166040516103b793929190610954565b60405180910390a15050505050565b6103ce61044a565b600073ffffffffffffffffffffffffffffffffffffffff168173ffffffffffffffffffffffffffffffffffffffff16141561043e576040517f08c379a0000000000000000000000000000000000000000000000000000000008152600401610435906109a6565b60405180910390fd5b610447816104c8565b50565b610452610702565b73ffffffffffffffffffffffffffffffffffffffff16610470610100565b73ffffffffffffffffffffffffffffffffffffffff16146104c6576040517f08c379a00000000000000000000000000000000000000000000000000000000081526004016104bd906109c6565b60405180910390fd5b565b60008060009054906101000a900473ffffffffffffffffffffffffffffffffffffffff169050816000806101000a81548173ffffffffffffffffffffffffffffffffffffffff021916908373ffffffffffffffffffffffffffffffffffffffff1602179055508173ffffffffffffffffffffffffffffffffffffffff168173ffffffffffffffffffffffffffffffffffffffff167f8be0079c531659141344cd1fd0a4f28419497f9722a3daafe3b4186f6b6457e060405160405180910390a35050565b60008173ffffffffffffffffffffffffffffffffffffffff168373ffffffffffffffffffffffffffffffffffffffff1614156105ff57826040517f6d303fa60000000000000000000000000000000000000000000000000000000081526004016105f69190610910565b60405180910390fd5b600061060b848461064a565b90506001600082815260200190815260200160002060009054906101000a900473ffffffffffffffffffffffffffffffffffffffff1691505092915050565b6000806000610659858561070a565b91509150600073ffffffffffffffffffffffffffffffffffffffff168273ffffffffffffffffffffffffffffffffffffffff1614156106cf57816040517fc80b88340000000000000000000000000000000000000000000000000000000081526004016106c69190610910565b60405180910390fd5b81816040516020016106e29291906108e4565b604051602081830303815290604052805190602001209250505092915050565b600033905090565b6000808273ffffffffffffffffffffffffffffffffffffffff168473ffffffffffffffffffffffffffffffffffffffff161061074757828461074a565b83835b915091509250929050565b61038f80610b0b83390190565b60008135905061077181610adc565b92915050565b60008151905061078681610af3565b92915050565b60006020828403121561079e57600080fd5b60006107ac84828501610762565b91505092915050565b600080604083850312156107c857600080fd5b60006107d685828601610762565b92505060206107e785828601610762565b9150509250929050565b60008060006060848603121561080657600080fd5b600061081486828701610762565b935050602061082586828701610762565b925050604061083686828701610762565b9150509250925092565b60006020828403121561085257600080fd5b600061086084828501610777565b91505092915050565b610872816109f7565b82525050565b610889610884826109f7565b610a33565b82525050565b61089881610a09565b82525050565b60006108ab6026836109e6565b91506108b682610a64565b604082019050919050565b60006108ce6020836109e6565b91506108d982610ab3565b602082019050919050565b60006108f08285610878565b6014820191506109008284610878565b6014820191508190509392505050565b60006020820190506109256000830184610869565b92915050565b60006040820190506109406000830185610869565b61094d6020830184610869565b9392505050565b60006060820190506109696000830186610869565b6109766020830185610869565b6109836040830184610869565b949350505050565b60006020820190506109a0600083018461088f565b92915050565b600060208201905081810360008301526109bf8161089e565b9050919050565b600060208201905081810360008301526109df816108c1565b9050919050565b600082825260208201905092915050565b6000610a0282610a13565b9050919050565b6000819050919050565b600073ffffffffffffffffffffffffffffffffffffffff82169050919050565b6000610a3e82610a45565b9050919050565b6000610a5082610a57565b9050919050565b60008160601b9050919050565b7f4f776e61626c653a206e6577206f776e657220697320746865207a65726f206160008201527f6464726573730000000000000000000000000000000000000000000000000000602082015250565b7f4f776e61626c653a2063616c6c6572206973206e6f7420746865206f776e6572600082015250565b610ae5816109f7565b8114610af057600080fd5b50565b610afc81610a09565b8114610b0757600080fd5b5056fe608060405234801561001057600080fd5b5060405161038f38038061038f8339818101604052810190610032919061008d565b806000806101000a81548173ffffffffffffffffffffffffffffffffffffffff021916908373ffffffffffffffffffffffffffffffffffffffff160217905550506100ff565b600081519050610087816100e8565b92915050565b60006020828403121561009f57600080fd5b60006100ad84828501610078565b91505092915050565b60006100c1826100c8565b9050919050565b600073ffffffffffffffffffffffffffffffffffffffff82169050919050565b6100f1816100b6565b81146100fc57600080fd5b50565b6102818061010e6000396000f3fe608060405234801561001057600080fd5b506004361061002b5760003560e01c80638e15f47314610030575b600080fd5b61003861004e565b60405161004591906101c1565b60405180910390f35b60008060008054906101000a900473ffffffffffffffffffffffffffffffffffffffff1673ffffffffffffffffffffffffffffffffffffffff1663feaf968c6040518163ffffffff1660e01b815260040160a06040518083038186803b1580156100b757600080fd5b505afa1580156100cb573d6000803e3d6000fd5b505050506040513d601f19601f820116820180604052508101906100ef919061013b565b5050509150508091505090565b60008151905061010b81610206565b92915050565b6000815190506101208161021d565b92915050565b60008151905061013581610234565b92915050565b600080600080600060a0868803121561015357600080fd5b600061016188828901610126565b9550506020610172888289016100fc565b945050604061018388828901610111565b935050606061019488828901610111565b92505060806101a588828901610126565b9150509295509295909350565b6101bb816101dc565b82525050565b60006020820190506101d660008301846101b2565b92915050565b6000819050919050565b6000819050919050565b600069ffffffffffffffffffff82169050919050565b61020f816101dc565b811461021a57600080fd5b50565b610226816101e6565b811461023157600080fd5b50565b61023d816101f0565b811461024857600080fd5b5056fea2646970667358221220b094a3a16228dc199e9bce48aea10a84f2031eeae28a8b0568353bcb9ba0057364736f6c63430008040033a2646970667358221220dfa412400ae1413a64ffc041d3f9802cb6fe7a4c5a54e2f1cbb3e37863a8f3a964736f6c63430008040033",
  "devdoc": {
    "custom:dev-run-script": "./scripts/deploy_with_ethers.ts",
    "details": "Given two tokens it solves address of the chainlink oracle",
    "kind": "dev",
    "methods": {
      "owner()": {
        "details": "Returns the address of the current owner."
      },
      "renounceOwnership()": {
        "details": "Leaves the contract without owner. It will not be possible to call `onlyOwner` functions anymore. Can only be called by the current owner. NOTE: Renouncing ownership will leave the contract without an owner, thereby removing any functionality that is only available to the owner."
      },
      "transferOwnership(address)": {
        "details": "Transfers ownership of the contract to a new account (`newOwner`). Can only be called by the current owner."
      }
    },
    "title": "OracleSolver",
    "version": 1
  },
  "userdoc": {
    "kind": "user",
    "methods": {},
    "version": 1
  },
  "storageLayout": {
    "storage": [
      {
        "astId": 53,
        "contract": "contracts/OracleSolver.sol:OracleSolver",
        "label": "_owner",
        "offset": 0,
        "slot": "0",
        "type": "t_address"
      },
      {
        "astId": 192,
        "contract": "contracts/OracleSolver.sol:OracleSolver",
        "label": "tokensPricer",
        "offset": 0,
        "slot": "1",
        "type": "t_mapping(t_bytes32,t_contract(PriceConsumerV3)449)"
      }
    ],
    "types": {
      "t_address": {
        "encoding": "inplace",
        "label": "address",
        "numberOfBytes": "20"
      },
      "t_bytes32": {
        "encoding": "inplace",
        "label": "bytes32",
        "numberOfBytes": "32"
      },
      "t_contract(PriceConsumerV3)449": {
        "encoding": "inplace",
        "label": "contract PriceConsumerV3",
        "numberOfBytes": "20"
      },
      "t_mapping(t_bytes32,t_contract(PriceConsumerV3)449)": {
        "encoding": "mapping",
        "key": "t_bytes32",
        "label": "mapping(bytes32 => contract PriceConsumerV3)",
        "numberOfBytes": "32",
        "value": "t_contract(PriceConsumerV3)449"
      }
    }
  }
}