{
  "address": "0x28aA0638b548D7bCC0BFf17489660591Efa84BD4",
  "abi": [
    {
      "inputs": [
        {
          "internalType": "address",
          "name": "tokenA",
          "type": "address"
        },
        {
          "internalType": "address",
          "name": "tokenB",
          "type": "address"
        },
        {
          "internalType": "address",
          "name": "solver",
          "type": "address"
        }
      ],
      "name": "addContract",
      "outputs": [],
      "stateMutability": "nonpayable",
      "type": "function"
    },
    {
      "inputs": [
        {
          "internalType": "address",
          "name": "tokenA",
          "type": "address"
        },
        {
          "internalType": "address",
          "name": "tokenB",
          "type": "address"
        }
      ],
      "name": "getContract",
      "outputs": [
        {
          "internalType": "address",
          "name": "",
          "type": "address"
        }
      ],
      "stateMutability": "view",
      "type": "function"
    },
    {
      "inputs": [
        {
          "internalType": "uint256",
          "name": "",
          "type": "uint256"
        }
      ],
      "name": "solvers",
      "outputs": [
        {
          "internalType": "address",
          "name": "",
          "type": "address"
        }
      ],
      "stateMutability": "view",
      "type": "function"
    },
    {
      "inputs": [
        {
          "internalType": "bytes32",
          "name": "",
          "type": "bytes32"
        }
      ],
      "name": "tokensToSolver",
      "outputs": [
        {
          "internalType": "address",
          "name": "",
          "type": "address"
        }
      ],
      "stateMutability": "view",
      "type": "function"
    }
  ],
  "transactionHash": "0xe156409796ac9be848d580efb3de401412d5309ac91e4393801fc9b48062d0bd",
  "args": [],
  "numDeployments": 1,
  "solcInputHash": "982a0ca0286fd904b766f39ae478a3af",
  "bytecode": "0x608060405234801561001057600080fd5b5061090a806100206000396000f3fe608060405234801561001057600080fd5b506004361061004c5760003560e01c80630db2c2fe1461005157806368bd6efa1461008157806392ce765e146100b1578063d860fd0e146100e1575b600080fd5b61006b600480360381019061006691906105de565b6100fd565b60405161007891906106eb565b60405180910390f35b61009b60048036038101906100969190610553565b610130565b6040516100a891906106eb565b60405180910390f35b6100cb60048036038101906100c69190610607565b610250565b6040516100d891906106eb565b60405180910390f35b6100fb60048036038101906100f6919061058f565b61028f565b005b60006020528060005260406000206000915054906101000a900473ffffffffffffffffffffffffffffffffffffffff1681565b60008173ffffffffffffffffffffffffffffffffffffffff168373ffffffffffffffffffffffffffffffffffffffff1614156101a1576040517f08c379a000000000000000000000000000000000000000000000000000000000815260040161019890610706565b60405180910390fd5b6000808373ffffffffffffffffffffffffffffffffffffffff168573ffffffffffffffffffffffffffffffffffffffff16106101de5783856101e1565b84845b91509150600082826040516020016101fa9291906106bf565b60405160208183030381529060405280519060200120905060008082815260200190815260200160002060009054906101000a900473ffffffffffffffffffffffffffffffffffffffff16935050505092915050565b6001818154811061026057600080fd5b906000526020600020016000915054906101000a900473ffffffffffffffffffffffffffffffffffffffff1681565b8173ffffffffffffffffffffffffffffffffffffffff168373ffffffffffffffffffffffffffffffffffffffff1614156102fe576040517f08c379a00000000000000000000000000000000000000000000000000000000081526004016102f590610706565b60405180910390fd5b600073ffffffffffffffffffffffffffffffffffffffff166103208484610130565b73ffffffffffffffffffffffffffffffffffffffff161415610377576040517f08c379a000000000000000000000000000000000000000000000000000000000815260040161036e90610746565b60405180910390fd5b6000808373ffffffffffffffffffffffffffffffffffffffff168573ffffffffffffffffffffffffffffffffffffffff16106103b45783856103b7565b84845b91509150600073ffffffffffffffffffffffffffffffffffffffff168273ffffffffffffffffffffffffffffffffffffffff16141561042b576040517f08c379a000000000000000000000000000000000000000000000000000000000815260040161042290610726565b60405180910390fd5b600082826040516020016104409291906106bf565b6040516020818303038152906040528051906020012090508360008083815260200190815260200160002060006101000a81548173ffffffffffffffffffffffffffffffffffffffff021916908373ffffffffffffffffffffffffffffffffffffffff1602179055506001849080600181540180825580915050600190039060005260206000200160009091909190916101000a81548173ffffffffffffffffffffffffffffffffffffffff021916908373ffffffffffffffffffffffffffffffffffffffff160217905550505050505050565b6000813590506105238161088f565b92915050565b600081359050610538816108a6565b92915050565b60008135905061054d816108bd565b92915050565b6000806040838503121561056657600080fd5b600061057485828601610514565b925050602061058585828601610514565b9150509250929050565b6000806000606084860312156105a457600080fd5b60006105b286828701610514565b93505060206105c386828701610514565b92505060406105d486828701610514565b9150509250925092565b6000602082840312156105f057600080fd5b60006105fe84828501610529565b91505092915050565b60006020828403121561061957600080fd5b60006106278482850161053e565b91505092915050565b61063981610777565b82525050565b61065061064b82610777565b6107bd565b82525050565b6000610663602183610766565b915061066e826107ee565b604082019050919050565b6000610686601a83610766565b91506106918261083d565b602082019050919050565b60006106a9601a83610766565b91506106b482610866565b602082019050919050565b60006106cb828561063f565b6014820191506106db828461063f565b6014820191508190509392505050565b60006020820190506107006000830184610630565b92915050565b6000602082019050818103600083015261071f81610656565b9050919050565b6000602082019050818103600083015261073f81610679565b9050919050565b6000602082019050818103600083015261075f8161069c565b9050919050565b600082825260208201905092915050565b600061078282610793565b9050919050565b6000819050919050565b600073ffffffffffffffffffffffffffffffffffffffff82169050919050565b6000819050919050565b60006107c8826107cf565b9050919050565b60006107da826107e1565b9050919050565b60008160601b9050919050565b7f4f7261636c65536f6c7665723a204944454e544943414c5f414444524553534560008201527f5300000000000000000000000000000000000000000000000000000000000000602082015250565b7f4f7261636c65536f6c7665723a205a45524f5f41444452455353000000000000600082015250565b7f4f726163746c65536f6c7665723a20504149525f455849535453000000000000600082015250565b61089881610777565b81146108a357600080fd5b50565b6108af81610789565b81146108ba57600080fd5b50565b6108c6816107b3565b81146108d157600080fd5b5056fea2646970667358221220e229d42d6735b79f66a3012f51c000037916cf09e95bf851241d98894960552264736f6c63430008040033",
  "devdoc": {
    "custom:dev-run-script": "./scripts/deploy_with_ethers.ts",
    "details": "Given two tokens it solves address of the chainlink oracle",
    "kind": "dev",
    "methods": {},
    "title": "OracleSolver",
    "version": 1
  },
  "userdoc": {
    "kind": "user",
    "methods": {},
    "version": 1
  },
  "storageLayout": {
    "storage": [
      {
        "astId": 6,
        "contract": "contracts/PriceConsumerV3.sol:OracleSolver",
        "label": "tokensToSolver",
        "offset": 0,
        "slot": "0",
        "type": "t_mapping(t_bytes32,t_address)"
      },
      {
        "astId": 9,
        "contract": "contracts/PriceConsumerV3.sol:OracleSolver",
        "label": "solvers",
        "offset": 0,
        "slot": "1",
        "type": "t_array(t_address)dyn_storage"
      }
    ],
    "types": {
      "t_address": {
        "encoding": "inplace",
        "label": "address",
        "numberOfBytes": "20"
      },
      "t_array(t_address)dyn_storage": {
        "base": "t_address",
        "encoding": "dynamic_array",
        "label": "address[]",
        "numberOfBytes": "32"
      },
      "t_bytes32": {
        "encoding": "inplace",
        "label": "bytes32",
        "numberOfBytes": "32"
      },
      "t_mapping(t_bytes32,t_address)": {
        "encoding": "mapping",
        "key": "t_bytes32",
        "label": "mapping(bytes32 => address)",
        "numberOfBytes": "32",
        "value": "t_address"
      }
    }
  }
}